S01600004175746F6E6F6D6F75735F6361722E737265633F
S11300000C942A000C948B060C9447000C94470023
S11300100C94D4070C9499070C9447000C94470053
S11300200C9447000C9447000C94CE060C940B07D8
S11300300C9447000C9447000C9447000C94470020
S11300400C9447000C9447000C9447000C94470010
S11300500C94470011241FBECFE5D8E0DEBFCDBF0E
S113006010E0A0E6B0E0E4E2F5E102C005900D92F4
S1130070AA39B107D9F720E0AAE9B0E001C01D927E
S1130080AC3BB207E1F70E943D040C94900A0C9437
S11300900000CF93C82F41E064E083E00E94330561
S11300A041E064E083E00E94330541E063E082E0E4
S11300B00E94330541E064E082E00E94330541E0A0
S11300C065E082E00E94330541E066E082E00E9440
S11300D033050E9482070E948F07C13019F0C23095
S11300E039F00BC041E064E083E00E94A90505C03B
S11300F041E064E083E00E94A905CF910895813036
S113010019F08230E1F00895613019F0623061F045
S1130110089541E063E082E00E94A90540E064E0C4
S113012082E00E94A905089541E064E082E00E9413
S1130130A90540E063E082E00E94A90508956130CA
S113014019F0623061F0089541E065E082E00E94B8
S1130150A90540E066E082E00E94A905089541E017
S113016066E082E00E94A90540E065E082E00E942A
S1130170A9050895813019F0823061F0089540E0B6
S113018063E082E00E94A90540E064E082E00E940E
S1130190A905089540E065E082E00E94A90540E0D9
S11301A066E082E00E94A905089581E00E94BA00F9
S11301B082E00E94BA00089561E081E00E947F001D
S11301C061E082E00E947F00089561E081E00E9486
S11301D07F0082E00E94BA002FEF81E19AE721506C
S11301E080409040E1F700C0000081E00E94BA0026
S11301F082E00E94BA00089561E082E00E947F00DC
S113020081E00E94BA002FEF81E19AE721508040FB
S11302109040E1F700C0000081E00E94BA0082E053
S11302200E94BA00089562E081E00E947F0062E0CB
S113023082E00E947F000895CF93C82F80FF06C0FC
S113024041E064E080E00E94A90505C040E064E06C
S113025080E00E94A905C1FF06C041E065E080E09E
S11302600E94A90505C040E065E080E00E94A90560
S1130270C2FF06C041E066E080E00E94A90505C017
S113028040E066E080E00E94A905C3FF06C041E0AB
S113029067E080E00E94A90505C040E067E080E0D7
S11302A00E94A905CF910895CF93C82F40E061E043
S11302B081E00E94A90540E062E081E00E94A90576
S11302C08C2F82958F700E941C0141E063E081E0D5
S11302D00E94A9058FE99FE00197F1F700C0000093
S11302E040E063E081E00E94A9058C2F0E941C017C
S11302F041E063E081E00E94A9058FE99FE0019756
S1130300F1F700C0000040E063E081E00E94A9052D
S1130310CF91089541E061E081E00E94330541E01E
S113032062E081E00E94330541E063E081E00E94E5
S1130330330541E064E080E00E94330541E065E07C
S113034080E00E94330541E066E080E00E943305CE
S113035041E067E080E00E9433052FE785EB91E000
S1130360215080409040E1F700C0000040E061E08F
S113037081E00E94A90540E062E081E00E94A905B5
S113038082E00E941C0141E063E081E00E94A90533
S11303908FE99FE00197F1F700C0000040E063E0BF
S11303A081E00E94A90588E20E9454019FE722E3AC
S11303B082E0915020408040E1F700C000008FE0CF
S11303C00E94540190EF9A95F1F781E00E94540144
S11303D08FE39FE10197F1F700C0000086E00E94DF
S11303E054010895CF93C82F41E061E081E00E9459
S11303F0A90540E062E081E00E94A9058C2F829566
S11304008F700E941C0141E063E081E00E94A90515
S11304108FE99FE00197F1F700C0000040E063E03E
S113042081E00E94A9058C2F0E941C0141E063E039
S113043081E00E94A9058FE99FE00197F1F700C0D0
S1130440000040E063E081E00E94A905CF91089597
S11304500F931F93CF938C01C0E003C00E94F2015D
S1130460CF5FF801EC0FF11D80818111F7CFCF919F
S11304701F910F91089581E00E9454018FE39FE141
S11304800197F1F700C000000895CF92DF92EF9238
S1130490FF921F93CF93DF93CDB7DEB760970FB66C
S11304A0F894DEBF0FBECDBF6B017C01FE01319617
S11304B080E1DF011D928A95E9F7FF2064F48DE263
S11304C00E94F201F094E094D094C094C11CD11C19
S11304D0E11CF11C08C0C114D104E104F10419F4B5
S11304E080E30E94F20110E014C0C701B6012AE0C3
S11304F030E040E050E00E94710AE1E0F0E0EC0FEF
S1130500FD1FE10FF11D6083C22ED32EE42EF52EC4
S11305101F5FC114D104E104F10439F7FF24FA94F4
S1130520F10E0DC0E1E0F0E0EC0FFD1FEF0DF11D49
S1130530F7FCFA958081805D0E94F201FA94FF2015
S11305408CF760960FB6F894DEBF0FBECDBFDF9177
S1130550CF911F91FF90EF90DF90CF90089541E0ED
S113056065E083E00E9433050E94220708952F92DC
S11305703F924F925F926F927F928F929F92AF922F
S1130580BF92CF92DF92EF92FF920F931F93CF937C
S1130590DF9300D000D0CDB7DEB7562E472E382ECD
S11305A0292E922E832E742E652E0E947E08882377
S11305B06CF02E2D3F2D402F512F652D742D832D42
S11305C0922D0E94DD09181634F009C0592C482CCC
S11305D0372C262C04C05E2C4F2C302E212E292D96
S11305E0382D472D562D652D742D832D922D0E9467
S11305F011081B012C01A6019501698D7A8D8B8D43
S11306009C8D0E9411089B01AC01C201B1010E94A2
S1130610E20969837A838B839C83292D382D472DA6
S1130620562D6E2D7F2D802F912F0E9411089B0136
S1130630AC0169817A818B819C810E9483089B0132
S1130640AC01C601B5010E941208ED8DFE8D6083D8
S11306507183828393830F900F900F900F90DF919B
S1130660CF911F910F91FF90EF90DF90CF90BF90AB
S1130670AF909F908F907F906F905F904F903F903E
S11306802F900895AF92BF92CF92DF92EF92FF9294
S11306900F931F93CF93DF9300D000D0CDB7DEB775
S11306A0682F880F770B880B990B0E942D099E01E8
S11306B02F5F3F4F3F932F9321E42F9320E22F93FB
S11306C01F921F920F2EA12CB12CF0EACF2EF0E432
S11306D0DF2EF02DE12CF12C04EB12E420E030E0CD
S11306E044EB52EC0E94B70269817A818B819C8130
S11306F042E350E00E943F070E9435070F900F909D
S11307000F900F900F900F900F900F900F900F90ED
S1130710DF91CF911F910F91FF90EF90DF90CF90D9
S1130720BF90AF90089580916000833008F065C059
S113073080916000813099F482B790E090939F009B
S113074080939E008091A8009091A9009093BB0093
S11307508093BA0061E080E00E941F0649C0809146
S11307606000823009F044C082B790E090939D000D
S113077080939C008091A8009091A9009093B90067
S11307808093B8008091B8009091B900982F882781
S113079020919C0030919D00820F931F2091BA00FC
S11307A03091BB00322F222740919E0050919F0030
S11307B0240F351F821B930B90939B0080939A0008
S11307C060919A0070919B0080E090E00E942B0958
S11307D026E933E44BE85DE30E94E2096093A0005C
S11307E07093A1008093A2009093A30010926000E4
S11307F0809160008F5F80936000089540E062E024
S113080083E00E94330541E060E083E00E94330509
S113081083E993E00E948406089541E060E083E068
S11308200E94A90585E38A95F1F7000040E060E0A5
S113083083E00E94A9050895CF93DF93EC010E9401
S11308400D0460E080E00E941F062FEF80E792E035
S1130850215080409040E1F700C000008091A0004A
S11308609091A100A091A200B091A30088839983E4
S1130870AA83BB83DF91CF910895CF93DF9300D0F8
S113088000D0CDB7DEB70E94B4060E94FE030E94DA
S11308908A010E94B8060E94C40681E00E944900B1
S11308A082E00E9449000E94AF0280E00E9442035D
S11308B02FEF83ED90E3215080409040E1F700C09A
S11308C00000CE0101960E941C040E943B0281E6B6
S11308D090E00E94280269817A818B819C810E9428
S11308E0F5080E9445028BE690E00E9428022FEF53
S11308F084E39CE0215080409040E1F700C0000078
S11309000E943B02C980DA80EB80FC8020E030E06A
S113091040EF51E4C701B6010E94DD0918161CF42A
S11309200E94DC00CECF20E030E040EF51E4C7016C
S1130930B6010E947E08181624F20E94D50069812F
S11309407A818B819C8120E030E040E251E40E9476
S11309507E0888236CF40E9413012FEF89E698E146
S1130960215080409040E1F700C000000E94D50073
S11309708AE50E9442032FEF83ED90E321508040EB
S11309809040E1F700C00000CE0101960E941C04D3
S1130990C980DA80EB80FC808FE690E00E94280218
S11309A0C701B6010E94F5080E9445028BE690E05B
S11309B00E9428022FEF89E698E121508040904060
S11309C0E1F700C0000086EA0E9442032FEF83EDA6
S11309D090E3215080409040E1F700C00000CE0138
S11309E001960E941C0489809A80AB80BC800E947E
S11309F03B0288E790E00E942802C501B4010E94EE
S1130A00F5080E9445028BE690E00E9428022FEF31
S1130A1089E698E1215080409040E1F700C0000051
S1130A200E943B0280E00E944203A5019401C70199
S1130A30B6010E94DD0918165CF40E943B0281E8AD
S1130A4090E00E9428020E94FC000E943B0239CFE1
S1130A500E943B028DE890E00E9428020E94E5007B
S1130A600E943B022ECF843008F072C0683008F038
S1130A706FC0423008F06CC0813001F130F0823038
S1130A80B1F1833009F44CC00895413059F42AB3CC
S1130A9081E090E002C0880F991F6A95E2F7822BEB
S1130AA08ABB08952AB381E090E002C0880F991FA1
S1130AB06A95E2F7809582238ABB0895413059F400
S1130AC027B381E090E002C0880F991F6A95E2F78E
S1130AD0822B87BB089527B381E090E002C0880F82
S1130AE0991F6A95E2F78095822387BB0895413068
S1130AF059F424B381E090E002C0880F991F6A95ED
S1130B00E2F7822B84BB089524B381E090E002C015
S1130B10880F991F6A95E2F78095822384BB089514
S1130B20413059F421B381E090E002C0880F991F4D
S1130B306A95E2F7822B81BB089521B381E090E0AE
S1130B4002C0880F991F6A95E2F78095822381BBC2
S1130B500895843008F072C0683008F06FC04230E5
S1130B6008F06CC0813001F130F08230B1F1833093
S1130B7009F44CC00895413059F42BB381E090E05E
S1130B8002C0880F991F6A95E2F7822B8BBB0895E8
S1130B902BB381E090E002C0880F991F6A95E2F7B9
S1130BA0809582238BBB0895413059F428B381E0AA
S1130BB090E002C0880F991F6A95E2F7822B88BBE8
S1130BC0089528B381E090E002C0880F991F6A95C8
S1130BD0E2F78095822388BB0895413059F425B308
S1130BE081E090E002C0880F991F6A95E2F7822B9A
S1130BF085BB089525B381E090E002C0880F991F5A
S1130C006A95E2F78095822385BB0895413059F4B3
S1130C1022B381E090E002C0880F991F6A95E2F741
S1130C20822B82BB089522B381E090E002C0880F3A
S1130C30991F6A95E2F78095822382BB08958130DB
S1130C4061F120F0823009F44FC00895613069F0F9
S1130C5028F0623089F06330B1F01BC085B7816041
S1130C6085BF85B7826085BF14C085B78E7F85BF79
S1130C7085B7826085BF0DC085B78E7F85BF85B778
S1130C808D7F85BF06C085B7816085BF85B78D7FA1
S1130C9085BF8BB780648BBF0895613069F028F0FD
S1130CA0623089F06330B1F01BC085B7846085BFC2
S1130CB085B7886085BF14C085B78B7F85BF85B72E
S1130CC0886085BF0DC085B78B7F85BF85B7877F5B
S1130CD085BF06C085B7846085BF85B7877F85BF1C
S1130CE08BB780688BBF0895662319F0613029F0B3
S1130CF007C084B7806484BF03C084B78F7B84BF7C
S1130D008BB780628BBF0895009721F09093A50064
S1130D108093A40008951F920F920FB60F9211248E
S1130D202F933F934F935F936F937F938F939F93EF
S1130D30AF93BF93EF93FF93E091A400F091A500CC
S1130D40309709F00995FF91EF91BF91AF919F9171
S1130D508F917F916F915F914F913F912F910F9060
S1130D600FBE0F901F9018958FB780688FBF08959E
S1130D7083B78F7B83BF83B7877F83BF81E782BFBE
S1130D8089B7816089BF089583B7816083BF83B7C2
S1130D90826083BF83B78B7F83BF08951F920F92B6
S1130DA00FB60F9211242F933F934F935F936F933A
S1130DB07F938F939F93AF93BF93EF93FF93809110
S1130DC0A6009091A70001969093A7008093A60097
S1130DD02091AA003091AB008217930759F4109226
S1130DE0A7001092A600E091AC00F091AD003097FE
S1130DF009F00995FF91EF91BF91AF919F918F9168
S1130E007F916F915F914F913F912F910F900FBE02
S1130E100F901F9018951F920F920FB60F921124E6
S1130E208F939F938091A8009091A900019690932D
S1130E30A9008093A8009F918F910F900FBE0F90EF
S1130E401F9018958FB58E7F8FBD8FB582608FBD33
S1130E508EB588608EBD8EB580618EBD8FB58F7B5B
S1130E608FBD8FB580688FBD08958EB581608EBDAE
S1130E708EB582608EBD8EB58B7F8EBD0895CF9268
S1130E80DF92EF92FF92CF93DF936B017C01EA0133
S1130E9020E030E048EC52E40E947E0818165CF131
S1130EA09E0140E050E060E970ED83E090E00E9434
S1130EB04F0A2150310937BD26BD66B577B56F5F3E
S1130EC07F4F80E090E00E942B099B01AC01C70199
S1130ED0B6010E94E20920E030E048EC52E40E94AE
S1130EE0830820E030E040E85FE30E9411080E949C
S1130EF0FC087BBD6ABDDF91CF91FF90EF90DF903E
S1130F00CF90089585B5806485BD85B5886085BD1D
S1130F1085B58F7E85BD85B5806285BD089585B50F
S1130F208E7F85BD85B58D7F85BD85B5846085BD86
S1130F3008951F920F920FB60F9211242F933F938F
S1130F404F935F936F937F938F939F93AF93BF93CD
S1130F50EF93FF938091B0009091B100019690932C
S1130F60B1008093B000813D934069F481E784BD72
S1130F701092B1001092B000E091B600F091B70069
S1130F80309709F00995FF91EF91BF91AF919F912F
S1130F908F917F916F915F914F913F912F910F901E
S1130FA00FBE0F901F9018951F920F920FB60F92BD
S1130FB011242F933F934F935F936F937F938F935A
S1130FC09F93AF93BF93EF93FF938091AE00909163
S1130FD0AF0001969093AF008093AE002091B200D1
S1130FE03091B3008217930759F41092AF00109216
S1130FF0AE00E091B400F091B500309709F0099586
S1131000FF91EF91BF91AF919F918F917F916F91DC
S11310105F914F913F912F910F900FBE0F901F90B2
S113102018955058BB27AA270E9429080C94A30995
S11310300E94950938F00E949C0920F039F49F3FE2
S113104019F426F40C9492090EF4E095E7FB0C9441
S11310508C09E92F0E94B40958F3BA176207730781
S11310608407950720F079F4A6F50C94D6090EF4BC
S1131070E0950B2EBA2FA02D0B01B90190010C01A4
S1131080CA01A0011124FF27591B99F0593F50F4BC
S1131090503E68F11A16F040A22F232F342F442714
S11310A0585FF3CF469537952795A795F04053950C
S11310B0C9F77EF41F16BA0B620B730B840BBAF0DC
S11310C09150A1F0FF0FBB1F661F771F881FC2F747
S11310D00EC0BA0F621F731F841F48F4879577955B
S11310E06795B795F7959E3F08F0B0CF9395880F15
S11310F008F09927EE0F9795879508950E9468093F
S113110008F481E008950E9497080C94A3090E94B2
S11311109C0958F00E94950940F029F45F3F29F09A
S11311200C948C0951110C94D7090C9492090E94C7
S1131130B40968F39923B1F3552391F3951B550B27
S1131140BB27AA2762177307840738F09F5F5F4F96
S1131150220F331F441FAA1FA9F335D00E2E3AF0D5
S1131160E0E832D091505040E695001CCAF72BD0ED
S1131170FE2F29D0660F771F881FBB1F261737073E
S11311804807AB07B0E809F0BB0B802DBF01FF2770
S113119093585F4F3AF09E3F510578F00C948C09B8
S11311A00C94D7095F3FE4F3983ED4F38695779582
S11311B06795B795F7959F5FC9F7880F911D969529
S11311C0879597F90895E1E0660F771F881FBB1F85
S11311D0621773078407BA0720F0621B730B840B32
S11311E0BA0BEE1F88F7E09508950E94FC086894F6
S11311F0B1110C94D70908950E94BC0988F09F5737
S113120098F0B92F9927B751B0F0E1F0660F771F26
S1131210881F991F1AF0BA95C9F714C0B13091F01C
S11312200E94D609B1E008950C94D609672F782F4F
S11312308827B85F39F0B93FCCF3869577956795E1
S1131240B395D9F73EF490958095709561957F4F4D
S11312508F4F9F4F0895E89409C097FB3EF49095F3
S11312608095709561957F4F8F4F9F4F9923A9F07B
S1131270F92F96E9BB279395F6958795779567950A
S1131280B795F111F8CFFAF4BB0F11F460FF1BC04E
S11312906F5F7F4F8F4F9F4F16C0882311F096E9E1
S11312A011C0772321F09EE8872F762F05C066238F
S11312B071F096E8862F70E060E02AF09A95660F48
S11312C0771F881FDAF7880F9695879597F9089501
S11312D0990F0008550FAA0BE0E8FEEF1616170643
S11312E0E807F907C0F012161306E407F50798F0AB
S11312F0621B730B840B950B39F40A2661F0232BC4
S1131300242B252B21F408950A2609F4A140A6953F
S11313108FEF811D811D089597F99F6780E870E024
S113132060E008959FEF80EC089500240A94161657
S1131330170618060906089500240A9412161306BF
S1131340140605060895092E0394000C11F488234D
S113135052F0BB0F40F4BF2B11F460FF04C06F5F69
S11313607F4F8F4F9F4F089557FD9058440F551F3F
S113137059F05F3F71F04795880F97FB991F61F013
S11313809F3F79F087950895121613061406551F8A
S1131390F2CF4695F1DF08C0161617061806991FF6
S11313A0F1CF86957105610508940895E894BB27EB
S11313B066277727CB0197F908950E94680908F4F6
S11313C08FEF08950E94F5090C94A3090E949509D2
S11313D038F00E949C0920F0952311F00C948C099C
S11313E00C94920911240C94D7090E94B40970F347
S11313F0959FC1F3950F50E0551F629FF001729FB6
S1131400BB27F00DB11D639FAA27F00DB11DAA1FC4
S1131410649F6627B00DA11D661F829F2227B00D11
S1131420A11D621F739FB00DA11D621F839FA00D9C
S1131430611D221F749F3327A00D611D231F849FEC
S1131440600D211D822F762F6A2F11249F57504043
S11314509AF0F1F088234AF0EE0FFF1FBB1F661FBE
S1131460771F881F91505040A9F79E3F510580F087
S11314700C948C090C94D7095F3FE4F3983ED4F3A1
S1131480869577956795B795F795E7959F5FC1F72B
S1131490FE2B880F911D9695879597F90895A1E2E3
S11314A01A2EAA1BBB1BFD010DC0AA1FBB1FEE1FDA
S11314B0FF1FA217B307E407F50720F0A21BB30B25
S11314C0E40BF50B661F771F881F991F1A9469F7A1
S11314D060957095809590959B01AC01BD01CF01FD
S11314E00895052E97FB1EF400940E94880A57FD68
S11314F007D00E944F0A07FC03D04EF40C94880ACC
S113150050954095309521953F4F4F4F5F4F08952B
S113151090958095709561957F4F8F4F9F4F08955B
S1071520F894FFCF69
S11315240164697374616E63653A0020636D004CF1
S11315342D646973742E3A00522D646973742E3ABF
S1131544004D6F76696E67204C656674004D6F7646
S10D1554696E67205269676874002D
S9030000FC
